{
  "_format": "hh-sol-artifact-1",
  "contractName": "Outpass",
  "sourceName": "contracts/Outpass.sol",
  "abi": [
    {
      "inputs": [],
      "stateMutability": "nonpayable",
      "type": "constructor"
    },
    {
      "anonymous": false,
      "inputs": [
        {
          "indexed": false,
          "internalType": "uint256",
          "name": "id",
          "type": "uint256"
        },
        {
          "indexed": false,
          "internalType": "address",
          "name": "student",
          "type": "address"
        }
      ],
      "name": "OutpassRequested",
      "type": "event"
    },
    {
      "anonymous": false,
      "inputs": [
        {
          "indexed": false,
          "internalType": "uint256",
          "name": "id",
          "type": "uint256"
        },
        {
          "indexed": false,
          "internalType": "enum Outpass.OutpassStatus",
          "name": "status",
          "type": "uint8"
        }
      ],
      "name": "OutpassStatusChanged",
      "type": "event"
    },
    {
      "inputs": [
        {
          "internalType": "uint256",
          "name": "_id",
          "type": "uint256"
        }
      ],
      "name": "approveOutpass",
      "outputs": [],
      "stateMutability": "nonpayable",
      "type": "function"
    },
    {
      "inputs": [
        {
          "internalType": "uint256",
          "name": "_id",
          "type": "uint256"
        }
      ],
      "name": "cancelOutpass",
      "outputs": [],
      "stateMutability": "nonpayable",
      "type": "function"
    },
    {
      "inputs": [
        {
          "internalType": "uint256",
          "name": "_id",
          "type": "uint256"
        }
      ],
      "name": "expireOutpass",
      "outputs": [],
      "stateMutability": "nonpayable",
      "type": "function"
    },
    {
      "inputs": [
        {
          "internalType": "string",
          "name": "_purpose",
          "type": "string"
        },
        {
          "internalType": "string",
          "name": "_destination",
          "type": "string"
        },
        {
          "internalType": "uint256",
          "name": "_fromTime",
          "type": "uint256"
        },
        {
          "internalType": "uint256",
          "name": "_toTime",
          "type": "uint256"
        },
        {
          "internalType": "string",
          "name": "_emergencyName",
          "type": "string"
        },
        {
          "internalType": "string",
          "name": "_emergencyPhone",
          "type": "string"
        }
      ],
      "name": "generateDayOutpass",
      "outputs": [],
      "stateMutability": "nonpayable",
      "type": "function"
    },
    {
      "inputs": [],
      "name": "getMyOutpasses",
      "outputs": [
        {
          "internalType": "uint256[]",
          "name": "",
          "type": "uint256[]"
        }
      ],
      "stateMutability": "view",
      "type": "function"
    },
    {
      "inputs": [
        {
          "internalType": "uint256",
          "name": "_id",
          "type": "uint256"
        }
      ],
      "name": "getOutpass",
      "outputs": [
        {
          "components": [
            {
              "internalType": "uint256",
              "name": "id",
              "type": "uint256"
            },
            {
              "internalType": "address",
              "name": "student",
              "type": "address"
            },
            {
              "internalType": "string",
              "name": "reason",
              "type": "string"
            },
            {
              "internalType": "string",
              "name": "destination",
              "type": "string"
            },
            {
              "internalType": "uint256",
              "name": "outDate",
              "type": "uint256"
            },
            {
              "internalType": "uint256",
              "name": "expectedReturnDate",
              "type": "uint256"
            },
            {
              "internalType": "enum Outpass.OutpassStatus",
              "name": "status",
              "type": "uint8"
            },
            {
              "components": [
                {
                  "internalType": "string",
                  "name": "name",
                  "type": "string"
                },
                {
                  "internalType": "string",
                  "name": "phone",
                  "type": "string"
                }
              ],
              "internalType": "struct Outpass.EmergencyContact",
              "name": "emergencyContact",
              "type": "tuple"
            }
          ],
          "internalType": "struct Outpass.OutpassData",
          "name": "",
          "type": "tuple"
        }
      ],
      "stateMutability": "view",
      "type": "function"
    },
    {
      "inputs": [
        {
          "internalType": "uint256",
          "name": "_id",
          "type": "uint256"
        }
      ],
      "name": "markAsUsed",
      "outputs": [],
      "stateMutability": "nonpayable",
      "type": "function"
    },
    {
      "inputs": [],
      "name": "outpassCount",
      "outputs": [
        {
          "internalType": "uint256",
          "name": "",
          "type": "uint256"
        }
      ],
      "stateMutability": "view",
      "type": "function"
    },
    {
      "inputs": [
        {
          "internalType": "uint256",
          "name": "",
          "type": "uint256"
        }
      ],
      "name": "outpasses",
      "outputs": [
        {
          "internalType": "uint256",
          "name": "id",
          "type": "uint256"
        },
        {
          "internalType": "address",
          "name": "student",
          "type": "address"
        },
        {
          "internalType": "string",
          "name": "reason",
          "type": "string"
        },
        {
          "internalType": "string",
          "name": "destination",
          "type": "string"
        },
        {
          "internalType": "uint256",
          "name": "outDate",
          "type": "uint256"
        },
        {
          "internalType": "uint256",
          "name": "expectedReturnDate",
          "type": "uint256"
        },
        {
          "internalType": "enum Outpass.OutpassStatus",
          "name": "status",
          "type": "uint8"
        },
        {
          "components": [
            {
              "internalType": "string",
              "name": "name",
              "type": "string"
            },
            {
              "internalType": "string",
              "name": "phone",
              "type": "string"
            }
          ],
          "internalType": "struct Outpass.EmergencyContact",
          "name": "emergencyContact",
          "type": "tuple"
        }
      ],
      "stateMutability": "view",
      "type": "function"
    },
    {
      "inputs": [],
      "name": "owner",
      "outputs": [
        {
          "internalType": "address",
          "name": "",
          "type": "address"
        }
      ],
      "stateMutability": "view",
      "type": "function"
    },
    {
      "inputs": [
        {
          "internalType": "uint256",
          "name": "_id",
          "type": "uint256"
        }
      ],
      "name": "rejectOutpass",
      "outputs": [],
      "stateMutability": "nonpayable",
      "type": "function"
    },
    {
      "inputs": [
        {
          "internalType": "string",
          "name": "_reason",
          "type": "string"
        },
        {
          "internalType": "string",
          "name": "_destination",
          "type": "string"
        },
        {
          "internalType": "uint256",
          "name": "_outDate",
          "type": "uint256"
        },
        {
          "internalType": "uint256",
          "name": "_expectedReturnDate",
          "type": "uint256"
        },
        {
          "internalType": "string",
          "name": "_emergencyName",
          "type": "string"
        },
        {
          "internalType": "string",
          "name": "_emergencyPhone",
          "type": "string"
        }
      ],
      "name": "requestOutpass",
      "outputs": [],
      "stateMutability": "nonpayable",
      "type": "function"
    },
    {
      "inputs": [
        {
          "internalType": "address",
          "name": "",
          "type": "address"
        },
        {
          "internalType": "uint256",
          "name": "",
          "type": "uint256"
        }
      ],
      "name": "studentOutpasses",
      "outputs": [
        {
          "internalType": "uint256",
          "name": "",
          "type": "uint256"
        }
      ],
      "stateMutability": "view",
      "type": "function"
    }
  ],
  "bytecode": "0x608060405234801561001057600080fd5b50336000806101000a81548173ffffffffffffffffffffffffffffffffffffffff021916908373ffffffffffffffffffffffffffffffffffffffff16021790555061249a806100606000396000f3fe608060405234801561001057600080fd5b50600436106100cf5760003560e01c806381f5886c1161008c578063a6161c4811610066578063a6161c48146101ea578063b5b36b0f1461021a578063d084c4f114610251578063d9223cca1461026d576100cf565b806381f5886c146101925780638da5cb5b146101ae578063a52b01e6146101cc576100cf565b80630a7c8414146100d45780632ed00636146100f057806344b89362146101205780634a612b6e1461013c578063597a4797146101585780635da6a04114610176575b600080fd5b6100ee60048036038101906100e99190611aae565b610289565b005b61010a60048036038101906101059190611aae565b6103b8565b604051610117919061204e565b60405180910390f35b61013a60048036038101906101359190611aae565b61073d565b005b610156600480360381019061015191906119c5565b61086d565b005b610160610b21565b60405161016d9190612070565b60405180910390f35b610190600480360381019061018b9190611aae565b610b27565b005b6101ac60048036038101906101a79190611aae565b610d43565b005b6101b6610e73565b6040516101c39190611f51565b60405180910390f35b6101d4610e97565b6040516101e19190611f6c565b60405180910390f35b61020460048036038101906101ff9190611989565b610f2c565b6040516102119190612070565b60405180910390f35b610234600480360381019061022f9190611aae565b610f5d565b6040516102489897969594939291906120b4565b60405180910390f35b61026b60048036038101906102669190611aae565b611210565b005b610287600480360381019061028291906119c5565b61142c565b005b60008054906101000a900473ffffffffffffffffffffffffffffffffffffffff1673ffffffffffffffffffffffffffffffffffffffff163373ffffffffffffffffffffffffffffffffffffffff1614610317576040517f08c379a000000000000000000000000000000000000000000000000000000000815260040161030e90611fae565b60405180910390fd5b600180600083815260200190815260200160002060060160006101000a81548160ff02191690836005811115610376577f4e487b7100000000000000000000000000000000000000000000000000000000600052602160045260246000fd5b02179055507f34f232ada2d3d9e6919d342ad007c829cc76ad6f65768e8b7fee6e86cff2d51e8160016040516103ad929190612147565b60405180910390a150565b6103c06117a1565b6001600083815260200190815260200160002060405180610100016040529081600082015481526020016001820160009054906101000a900473ffffffffffffffffffffffffffffffffffffffff1673ffffffffffffffffffffffffffffffffffffffff1673ffffffffffffffffffffffffffffffffffffffff16815260200160028201805461044f906122da565b80601f016020809104026020016040519081016040528092919081815260200182805461047b906122da565b80156104c85780601f1061049d576101008083540402835291602001916104c8565b820191906000526020600020905b8154815290600101906020018083116104ab57829003601f168201915b505050505081526020016003820180546104e1906122da565b80601f016020809104026020016040519081016040528092919081815260200182805461050d906122da565b801561055a5780601f1061052f5761010080835404028352916020019161055a565b820191906000526020600020905b81548152906001019060200180831161053d57829003601f168201915b5050505050815260200160048201548152602001600582015481526020016006820160009054906101000a900460ff1660058111156105c2577f4e487b7100000000000000000000000000000000000000000000000000000000600052602160045260246000fd5b60058111156105fa577f4e487b7100000000000000000000000000000000000000000000000000000000600052602160045260246000fd5b81526020016007820160405180604001604052908160008201805461061e906122da565b80601f016020809104026020016040519081016040528092919081815260200182805461064a906122da565b80156106975780601f1061066c57610100808354040283529160200191610697565b820191906000526020600020905b81548152906001019060200180831161067a57829003601f168201915b505050505081526020016001820180546106b0906122da565b80601f01602080910402602001604051908101604052809291908181526020018280546106dc906122da565b80156107295780601f106106fe57610100808354040283529160200191610729565b820191906000526020600020905b81548152906001019060200180831161070c57829003601f168201915b505050505081525050815250509050919050565b60008054906101000a900473ffffffffffffffffffffffffffffffffffffffff1673ffffffffffffffffffffffffffffffffffffffff163373ffffffffffffffffffffffffffffffffffffffff16146107cb576040517f08c379a00000000000000000000000000000000000000000000000000000000081526004016107c290611fae565b60405180910390fd5b60026001600083815260200190815260200160002060060160006101000a81548160ff0219169083600581111561082b577f4e487b7100000000000000000000000000000000000000000000000000000000600052602160045260246000fd5b02179055507f34f232ada2d3d9e6919d342ad007c829cc76ad6f65768e8b7fee6e86cff2d51e816002604051610862929190612147565b60405180910390a150565b600360008154809291906108809061230c565b919050555060405180610100016040528060035481526020013373ffffffffffffffffffffffffffffffffffffffff16815260200187815260200186815260200185815260200184815260200160006005811115610907577f4e487b7100000000000000000000000000000000000000000000000000000000600052602160045260246000fd5b81526020016040518060400160405280858152602001848152508152506001600060035481526020019081526020016000206000820151816000015560208201518160010160006101000a81548173ffffffffffffffffffffffffffffffffffffffff021916908373ffffffffffffffffffffffffffffffffffffffff16021790555060408201518160020190805190602001906109a692919061183a565b5060608201518160030190805190602001906109c392919061183a565b506080820151816004015560a0820151816005015560c08201518160060160006101000a81548160ff02191690836005811115610a29577f4e487b7100000000000000000000000000000000000000000000000000000000600052602160045260246000fd5b021790555060e0820151816007016000820151816000019080519060200190610a5392919061183a565b506020820151816001019080519060200190610a7092919061183a565b505050905050600260003373ffffffffffffffffffffffffffffffffffffffff1673ffffffffffffffffffffffffffffffffffffffff16815260200190815260200160002060035490806001815401808255809150506001900390600052602060002001600090919091909150557f9a4f60cc5e0091aafa5e56691a691cd0a60eeeddff04f4f0bc7aa4aa8967c6e460035433604051610b1192919061208b565b60405180910390a1505050505050565b60035481565b3373ffffffffffffffffffffffffffffffffffffffff166001600083815260200190815260200160002060010160009054906101000a900473ffffffffffffffffffffffffffffffffffffffff1673ffffffffffffffffffffffffffffffffffffffff1614610bcb576040517f08c379a0000000000000000000000000000000000000000000000000000000008152600401610bc29061202e565b60405180910390fd5b60016005811115610c05577f4e487b7100000000000000000000000000000000000000000000000000000000600052602160045260246000fd5b6001600083815260200190815260200160002060060160009054906101000a900460ff166005811115610c61577f4e487b7100000000000000000000000000000000000000000000000000000000600052602160045260246000fd5b14610ca1576040517f08c379a0000000000000000000000000000000000000000000000000000000008152600401610c989061200e565b60405180910390fd5b60056001600083815260200190815260200160002060060160006101000a81548160ff02191690836005811115610d01577f4e487b7100000000000000000000000000000000000000000000000000000000600052602160045260246000fd5b02179055507f34f232ada2d3d9e6919d342ad007c829cc76ad6f65768e8b7fee6e86cff2d51e816005604051610d38929190612147565b60405180910390a150565b60008054906101000a900473ffffffffffffffffffffffffffffffffffffffff1673ffffffffffffffffffffffffffffffffffffffff163373ffffffffffffffffffffffffffffffffffffffff1614610dd1576040517f08c379a0000000000000000000000000000000000000000000000000000000008152600401610dc890611fae565b60405180910390fd5b60046001600083815260200190815260200160002060060160006101000a81548160ff02191690836005811115610e31577f4e487b7100000000000000000000000000000000000000000000000000000000600052602160045260246000fd5b02179055507f34f232ada2d3d9e6919d342ad007c829cc76ad6f65768e8b7fee6e86cff2d51e816004604051610e68929190612147565b60405180910390a150565b60008054906101000a900473ffffffffffffffffffffffffffffffffffffffff1681565b6060600260003373ffffffffffffffffffffffffffffffffffffffff1673ffffffffffffffffffffffffffffffffffffffff168152602001908152602001600020805480602002602001604051908101604052809291908181526020018280548015610f2257602002820191906000526020600020905b815481526020019060010190808311610f0e575b5050505050905090565b60026020528160005260406000208181548110610f4857600080fd5b90600052602060002001600091509150505481565b60016020528060005260406000206000915090508060000154908060010160009054906101000a900473ffffffffffffffffffffffffffffffffffffffff1690806002018054610fac906122da565b80601f0160208091040260200160405190810160405280929190818152602001828054610fd8906122da565b80156110255780601f10610ffa57610100808354040283529160200191611025565b820191906000526020600020905b81548152906001019060200180831161100857829003601f168201915b50505050509080600301805461103a906122da565b80601f0160208091040260200160405190810160405280929190818152602001828054611066906122da565b80156110b35780601f10611088576101008083540402835291602001916110b3565b820191906000526020600020905b81548152906001019060200180831161109657829003601f168201915b5050505050908060040154908060050154908060060160009054906101000a900460ff1690806007016040518060400160405290816000820180546110f7906122da565b80601f0160208091040260200160405190810160405280929190818152602001828054611123906122da565b80156111705780601f1061114557610100808354040283529160200191611170565b820191906000526020600020905b81548152906001019060200180831161115357829003601f168201915b50505050508152602001600182018054611189906122da565b80601f01602080910402602001604051908101604052809291908181526020018280546111b5906122da565b80156112025780601f106111d757610100808354040283529160200191611202565b820191906000526020600020905b8154815290600101906020018083116111e557829003601f168201915b505050505081525050905088565b3373ffffffffffffffffffffffffffffffffffffffff166001600083815260200190815260200160002060010160009054906101000a900473ffffffffffffffffffffffffffffffffffffffff1673ffffffffffffffffffffffffffffffffffffffff16146112b4576040517f08c379a00000000000000000000000000000000000000000000000000000000081526004016112ab9061202e565b60405180910390fd5b600060058111156112ee577f4e487b7100000000000000000000000000000000000000000000000000000000600052602160045260246000fd5b6001600083815260200190815260200160002060060160009054906101000a900460ff16600581111561134a577f4e487b7100000000000000000000000000000000000000000000000000000000600052602160045260246000fd5b1461138a576040517f08c379a000000000000000000000000000000000000000000000000000000000815260040161138190611fee565b60405180910390fd5b60036001600083815260200190815260200160002060060160006101000a81548160ff021916908360058111156113ea577f4e487b7100000000000000000000000000000000000000000000000000000000600052602160045260246000fd5b02179055507f34f232ada2d3d9e6919d342ad007c829cc76ad6f65768e8b7fee6e86cff2d51e816003604051611421929190612147565b60405180910390a150565b4284101561146f576040517f08c379a000000000000000000000000000000000000000000000000000000000815260040161146690611f8e565b60405180910390fd5b8383116114b1576040517f08c379a00000000000000000000000000000000000000000000000000000000081526004016114a890611fce565b60405180910390fd5b600360008154809291906114c49061230c565b919050555060405180610100016040528060035481526020013373ffffffffffffffffffffffffffffffffffffffff1681526020018781526020018681526020018581526020018481526020016001600581111561154b577f4e487b7100000000000000000000000000000000000000000000000000000000600052602160045260246000fd5b81526020016040518060400160405280858152602001848152508152506001600060035481526020019081526020016000206000820151816000015560208201518160010160006101000a81548173ffffffffffffffffffffffffffffffffffffffff021916908373ffffffffffffffffffffffffffffffffffffffff16021790555060408201518160020190805190602001906115ea92919061183a565b50606082015181600301908051906020019061160792919061183a565b506080820151816004015560a0820151816005015560c08201518160060160006101000a81548160ff0219169083600581111561166d577f4e487b7100000000000000000000000000000000000000000000000000000000600052602160045260246000fd5b021790555060e082015181600701600082015181600001908051906020019061169792919061183a565b5060208201518160010190805190602001906116b492919061183a565b505050905050600260003373ffffffffffffffffffffffffffffffffffffffff1673ffffffffffffffffffffffffffffffffffffffff16815260200190815260200160002060035490806001815401808255809150506001900390600052602060002001600090919091909150557f9a4f60cc5e0091aafa5e56691a691cd0a60eeeddff04f4f0bc7aa4aa8967c6e46003543360405161175592919061208b565b60405180910390a17f34f232ada2d3d9e6919d342ad007c829cc76ad6f65768e8b7fee6e86cff2d51e6003546001604051611791929190612147565b60405180910390a1505050505050565b60405180610100016040528060008152602001600073ffffffffffffffffffffffffffffffffffffffff1681526020016060815260200160608152602001600081526020016000815260200160006005811115611827577f4e487b7100000000000000000000000000000000000000000000000000000000600052602160045260246000fd5b81526020016118346118c0565b81525090565b828054611846906122da565b90600052602060002090601f01602090048101928261186857600085556118af565b82601f1061188157805160ff19168380011785556118af565b828001600101855582156118af579182015b828111156118ae578251825591602001919060010190611893565b5b5090506118bc91906118da565b5090565b604051806040016040528060608152602001606081525090565b5b808211156118f35760008160009055506001016118db565b5090565b600061190a611905846121a1565b612170565b90508281526020810184848401111561192257600080fd5b61192d848285612298565b509392505050565b60008135905061194481612436565b92915050565b600082601f83011261195b57600080fd5b813561196b8482602086016118f7565b91505092915050565b6000813590506119838161244d565b92915050565b6000806040838503121561199c57600080fd5b60006119aa85828601611935565b92505060206119bb85828601611974565b9150509250929050565b60008060008060008060c087890312156119de57600080fd5b600087013567ffffffffffffffff8111156119f857600080fd5b611a0489828a0161194a565b965050602087013567ffffffffffffffff811115611a2157600080fd5b611a2d89828a0161194a565b9550506040611a3e89828a01611974565b9450506060611a4f89828a01611974565b935050608087013567ffffffffffffffff811115611a6c57600080fd5b611a7889828a0161194a565b92505060a087013567ffffffffffffffff811115611a9557600080fd5b611aa189828a0161194a565b9150509295509295509295565b600060208284031215611ac057600080fd5b6000611ace84828501611974565b91505092915050565b6000611ae38383611f33565b60208301905092915050565b611af881612237565b82525050565b611b0781612237565b82525050565b6000611b18826121e1565b611b228185612204565b9350611b2d836121d1565b8060005b83811015611b5e578151611b458882611ad7565b9750611b50836121f7565b925050600181019050611b31565b5085935050505092915050565b611b7481612286565b82525050565b611b8381612286565b82525050565b6000611b94826121ec565b611b9e8185612215565b9350611bae8185602086016122a7565b611bb781612411565b840191505092915050565b6000611bcd826121ec565b611bd78185612226565b9350611be78185602086016122a7565b611bf081612411565b840191505092915050565b6000611c08601f83612226565b91507f457869742074696d652063616e6e6f7420626520696e207468652070617374006000830152602082019050919050565b6000611c48602183612226565b91507f4f6e6c79206f776e65722063616e2063616c6c20746869732066756e6374696f60008301527f6e000000000000000000000000000000000000000000000000000000000000006020830152604082019050919050565b6000611cae602383612226565b91507f52657475726e2074696d65206d7573742062652061667465722065786974207460008301527f696d6500000000000000000000000000000000000000000000000000000000006020830152604082019050919050565b6000611d14602183612226565b91507f43616e206f6e6c792063616e63656c2070656e64696e67206f7574706173736560008301527f73000000000000000000000000000000000000000000000000000000000000006020830152604082019050919050565b6000611d7a601483612226565b91507f4f757470617373206e6f7420617070726f7665640000000000000000000000006000830152602082019050919050565b6000611dba601083612226565b91507f4e6f7420796f7572206f757470617373000000000000000000000000000000006000830152602082019050919050565b60006040830160008301518482036000860152611e0a8282611b89565b91505060208301518482036020860152611e248282611b89565b9150508091505092915050565b60006040830160008301518482036000860152611e4e8282611b89565b91505060208301518482036020860152611e688282611b89565b9150508091505092915050565b600061010083016000830151611e8e6000860182611f33565b506020830151611ea16020860182611aef565b5060408301518482036040860152611eb98282611b89565b91505060608301518482036060860152611ed38282611b89565b9150506080830151611ee86080860182611f33565b5060a0830151611efb60a0860182611f33565b5060c0830151611f0e60c0860182611b6b565b5060e083015184820360e0860152611f268282611ded565b9150508091505092915050565b611f3c8161227c565b82525050565b611f4b8161227c565b82525050565b6000602082019050611f666000830184611afe565b92915050565b60006020820190508181036000830152611f868184611b0d565b905092915050565b60006020820190508181036000830152611fa781611bfb565b9050919050565b60006020820190508181036000830152611fc781611c3b565b9050919050565b60006020820190508181036000830152611fe781611ca1565b9050919050565b6000602082019050818103600083015261200781611d07565b9050919050565b6000602082019050818103600083015261202781611d6d565b9050919050565b6000602082019050818103600083015261204781611dad565b9050919050565b600060208201905081810360008301526120688184611e75565b905092915050565b60006020820190506120856000830184611f42565b92915050565b60006040820190506120a06000830185611f42565b6120ad6020830184611afe565b9392505050565b6000610100820190506120ca600083018b611f42565b6120d7602083018a611afe565b81810360408301526120e98189611bc2565b905081810360608301526120fd8188611bc2565b905061210c6080830187611f42565b61211960a0830186611f42565b61212660c0830185611b7a565b81810360e08301526121388184611e31565b90509998505050505050505050565b600060408201905061215c6000830185611f42565b6121696020830184611b7a565b9392505050565b6000604051905081810181811067ffffffffffffffff82111715612197576121966123e2565b5b8060405250919050565b600067ffffffffffffffff8211156121bc576121bb6123e2565b5b601f19601f8301169050602081019050919050565b6000819050602082019050919050565b600081519050919050565b600081519050919050565b6000602082019050919050565b600082825260208201905092915050565b600082825260208201905092915050565b600082825260208201905092915050565b60006122428261225c565b9050919050565b600081905061225782612422565b919050565b600073ffffffffffffffffffffffffffffffffffffffff82169050919050565b6000819050919050565b600061229182612249565b9050919050565b82818337600083830152505050565b60005b838110156122c55780820151818401526020810190506122aa565b838111156122d4576000848401525b50505050565b600060028204905060018216806122f257607f821691505b60208210811415612306576123056123b3565b5b50919050565b60006123178261227c565b91507fffffffffffffffffffffffffffffffffffffffffffffffffffffffffffffffff82141561234a57612349612355565b5b600182019050919050565b7f4e487b7100000000000000000000000000000000000000000000000000000000600052601160045260246000fd5b7f4e487b7100000000000000000000000000000000000000000000000000000000600052602160045260246000fd5b7f4e487b7100000000000000000000000000000000000000000000000000000000600052602260045260246000fd5b7f4e487b7100000000000000000000000000000000000000000000000000000000600052604160045260246000fd5b6000601f19601f8301169050919050565b6006811061243357612432612384565b5b50565b61243f81612237565b811461244a57600080fd5b50565b6124568161227c565b811461246157600080fd5b5056fea26469706673582212202329c5de6295fb02b18f9a5daabf8043a85bbdc99765e5de7b92b6504d29ee0c64736f6c63430008000033",
  "linkReferences": {},
  "deployedLinkReferences": {}
}